:020000040800F2
:1000000000500020950C0008E50C0008E50C0008E5
:10001000E50C0008E50C0008E50C000800000000F5
:10002000000000000000000000000000E50C0008D7
:10003000E50C000800000000E50C0008F9090008C4
:10004000E50C0008E50C0008E50C0008E50C0008CC
:10005000E50C0008E50C0008E50C0008E50C0008BC
:10006000E50C0008E50C0008E50C0008E50C0008AC
:10007000E50C0008E50C0008E50C0008E50C00089C
:10008000E50C0008E50C0008E50C0008E50C00088C
:10009000E50C0008E50C0008E50C0008E50C00087C
:1000A000E50C0008E50C0008E50C0008E50C00086C
:1000B000E50C0008E50C0008E50C0008E50C00085C
:1000C000E50C0008E50C0008E50C0008E50C00084C
:1000D000E50C0008E50C0008E50C0008E50C00083C
:1000E000E50C0008E50C000800000000E50C000825
:1000F000E50C0008E50C0008E50C0008E50C00081C
:10010000E50C0008E50C0008E50C0008E50C00080B
:10011000E50C0008E50C0008E50C0008E50C0008FB
:10012000E50C0008E50C0008E50C0008E50C0008EB
:1001300010B5054C237833B9044B13B10448AFF321
:1001400000800123237010BD00000020000000008B
:10015000300D000808B5034B1BB103490348AFF34A
:10016000008008BD0000000004000020300D0008E1
:1001700080B485B000AF78600023FB6003E000BF6F
:10018000FB680133FB607B684FF4FA7202FB03F3F8
:10019000FA689A42F3D300BF00BF1437BD4680BC53
:1001A0007047000080B500AF244B9B68234A43F0A2
:1001B000010393601420FFF7DBFF204B9B681F4A6D
:1001C00043F0010393601D4B9B681C4A43F00103FD
:1001D00093601A4B9B68194A43F400239360174BB2
:1001E0009B68164A43F400339360144B9B68134A90
:1001F00043F480239360114B9B68104A43F48013AF
:1002000093600E4B9B680D4A23F4006393600B4B85
:100210009B680A4A23F002039360084B9B68074AD5
:1002200043F00403936000BF044B9B689B0803F0FA
:100230000103002BF8D100BF00BF80BD00240140A6
:1002400080B483B000AF0346FB71FB79092B1DD846
:10025000194B5B6B184A23F001035363164B5B6B1E
:10026000154A23F002035363134B5B6B124A23F0CE
:1002700004035363104B5B6B0F4A23F00803536373
:100280000D4B5B6B0C4A23F0100353630A4B9B68C6
:10029000094A43F48003936000BF074B1B685B0867
:1002A00003F00103012BF8D1034BDB6C9BB2184622
:1002B0000C37BD4680BC70470024014080B483B039
:1002C00000AF0346FB710B46BB7113467B71FB7994
:1002D000022B00F2B680BB790F2B00F2B2807B7943
:1002E0000F2B00F2AE80BB79072B52D8FB79022B83
:1002F00037D0022B00F3A580002B02D0012B18D0A1
:100300009FE0524B1B68BA7992000F2101FA02F26A
:10031000D24311464D4A0B4013604C4B1B68797910
:10032000BA79920001FA02F21146484A0B4313606F
:1003300087E0474B1B68BA7992000F2101FA02F25D
:10034000D2431146424A0B401360414B1B687979F6
:10035000BA79920001FA02F211463D4A0B4313604A
:100360006FE03C4B1B68BA7992000F2101FA02F250
:10037000D2431146374A0B401360364B1B687979DC
:10038000BA79920001FA02F21146324A0B43136025
:1003900057E0BB790F2B54D8BB79083BBB71FB7975
:1003A000022B36D0022B4CDC002B02D0012B18D0B4
:1003B00047E0294B1B68BA7992000F2101FA02F23B
:1003C000D2431146244A0B401360234B1B687979B2
:1003D000BA79920001FA02F211461F4A0B431360E8
:1003E0002FE01E4B1B68BA7992000F2101FA02F22E
:1003F000D2431146194A0B401360184B1B68797998
:10040000BA79920001FA02F21146144A0B431360C2
:1004100017E0134B1B68BA7992000F2101FA02F220
:10042000D24311460E4A0B4013600D4B1B6879797D
:10043000BA79920001FA02F21146094A0B4313609D
:1004400000BF00BF0C37BD4680BC704700080140AC
:10045000000C01400010014004080140040C014060
:100460000410014080B483B000AF0346FB710B461B
:10047000BB7113467B71FB79022B61D8BB790F2BC3
:100480005ED87B79002B2DD1FB79022B1ED0022B5D
:1004900056DC002B02D0012B0CD051E02B4B1B68FB
:1004A000BA79012101FA02F2D2431146274A0B40E0
:1004B000136045E0264B1B68BA79012101FA02F26C
:1004C000D2431146224A0B40136039E0214B1B688E
:1004D000BA79012101FA02F2D24311461D4A0B40BA
:1004E00013602DE07B79012B2AD1FB79022B1CD0E4
:1004F000022B25DC002B02D0012B0BD020E0134B6C
:100500001B68BA79012101FA02F211460F4A0B4326
:10051000136015E00E4B1B68BA79012101FA02F253
:1005200011460B4A0B4313600AE00A4B1B68BA7969
:10053000012101FA02F21146064A0B43136000BF83
:1005400000BF0C37BD4680BC704700BF0C0801409F
:100550000C0C01400C10014080B485B000AF7860F5
:100560000023FB6003E000BFFB680133FB607B6896
:100570004FF4FA7202FB03F3FA689A42F3D300BF16
:1005800000BF1437BD4680BC704780B500AF022263
:100590000B210020FFF792FE022208210020FFF726
:1005A0008DFE02220C210120FFF788FE02220D2180
:1005B0000120FFF783FE02220E210120FFF77EFEBD
:1005C00002220F210120FFF779FE2320FFF7C4FF4D
:1005D00000220B210020FFF745FF00220821002008
:1005E000FFF740FF00220C210120FFF73BFF002214
:1005F0000D210120FFF736FF01220E210120FFF718
:1006000031FF00220F210120FFF72CFF01220821DA
:100610000020FFF727FF0120FFF79EFF002208219F
:100620000020FFF71FFF0520FFF796FF282000F0AE
:100630001DF80E2000F01AF8012000F017F806202F
:1006400000F014F800BF80BD80B582B000AF034653
:10065000FB7101220B210020FFF704FFFB791846F4
:1006600000F0C6F800BF0837BD4680BD80B582B037
:1006700000AF0346FB7100220B210020FFF7F2FEC2
:10068000FB79184600F0B4F800BF0837BD4680BDBE
:1006900080B582B000AF786009E07B6893F90030E4
:1006A000DBB21846FFF7D0FF7B6801337B607B68C5
:1006B00093F90030002BF0D100BF00BF0837BD46D2
:1006C00080BD000080B586B000AF0346FB800023EC
:1006D000FB6007F1100300221A609A800023FB756B
:1006E000B7F90630002B03D13020FFF7ADFF4FE004
:1006F000B7F90630002B2BDA2D20FFF7A5FFFB887A
:100700005B429BB2FB8023E0B7F90620224B83FBC0
:1007100002139910D317C91A0B469B000B445B00B8
:10072000D31A1AB297F91730D2B218333B4403F8F0
:100730000C2CB7F90630184A82FB03129210DB1713
:10074000D31AFB8097F91730DBB20133DBB2FB75AC
:10075000B7F90630002BD7D197F91730DBB2013B40
:10076000DBB2FB7510E097F9173018333B4413F8F0
:100770000C3C3033DBB21846FFF766FF97F91730B1
:10078000DBB2013BDBB2FB7597F91730002BEADADD
:100790001837BD4680BD00BF6766666680B582B00B
:1007A00000AF03460A46FB711346BB71FB79002B71
:1007B00002D0FB79012B16D1BB790F2B13D8FB7913
:1007C000002B02D0012B07D00EE0BB79803BDBB2BF
:1007D0001846FFF74BFF07E0BB79403BDBB21846FA
:1007E000FFF744FF00E000BF00BF0837BD4680BDF3
:1007F00080B582B000AF0346FB71002208210020C3
:10080000FFF730FEFB791B09DBB203F00103DBB21B
:100810001A460F210120FFF725FEFB795B09DBB2A9
:1008200003F00103DBB21A460E210120FFF71AFE86
:10083000FB799B09DBB203F00103DBB21A460D2101
:100840000120FFF70FFEFB79DB09DBB21A460C2112
:100850000120FFF707FE012208210020FFF702FE1A
:100860000120FFF779FE002208210020FFF7FAFDA2
:100870000520FFF771FEFB7903F00103DBB21A4696
:100880000F210120FFF7EEFDFB795B08DBB203F0DF
:100890000103DBB21A460E210120FFF7E3FDFB79CD
:1008A0009B08DBB203F00103DBB21A460D210120E5
:1008B000FFF7D8FDFB79DB08DBB203F00103DBB205
:1008C0001A460C210120FFF7CDFD0122082100204E
:1008D000FFF7C8FD0120FFF73FFE0022082100209E
:1008E000FFF7C0FD0520FFF737FE00BF0837BD4604
:1008F00080BD000080B400AF0A4B1B68094A43F07A
:1009000001031360084B1B68074A23F001031360BF
:10091000054B1B68044A23F00203136000BFBD4669
:1009200080BC7047001002400410024080B483B0C5
:1009300000AF03460A46FB711346BB71BB791F2B00
:100940002AD8FB79022B1CD0022B25DC002B02D0ED
:10095000012B0BD020E0134B1B68BA79012101FA5F
:1009600002F211460F4A0B43136015E00E4B1B6851
:10097000BA79012101FA02F211460B4A0B431360C6
:100980000AE00A4B1B68BA79012101FA02F211460A
:10099000064A0B43136000BF00BF0C37BD4680BC46
:1009A000704700BF141002401C1002401810024093
:1009B00080B483B000AF0346FB71FB79032B13D8DF
:1009C0000C4B1B680B4A23F480431360094B1B68D4
:1009D000084A23F400431360064B1B68FA7992031C
:1009E0001146044A0B43136000BF0C37BD4680BC60
:1009F000704700BF0410024080B582B000AF0023F2
:100A0000FB71124B1B78022B11D1114B1B68104A42
:100A100023F0020313600E4B1B680D4A23F0010301
:100A200013600B4B00225A60094B00229A60094B5D
:100A30001B689847064B1B681B0CDBB203F00103D5
:100A4000FB7100BF0837BD4680BD00BF20000020FD
:100A500010E000E01C00002080B500AFFFF74AFF67
:100A600002210220FFF762FF04210220FFF75EFF50
:100A700003210220FFF75AFF0020FFF799FF092109
:100A80000220FFF753FF002200210020FFF716FC91
:100A9000FFF788FBFFF779FD012201210020FFF716
:100AA0000DFC012202210020FFF708FC01220D218C
:100AB0000220FFF703FC01220E210220FFF7FEFBBC
:100AC00001220F210220FFF7F9FB01210020FFF78F
:100AD00065FE6E48FFF7DCFD06210120FFF75EFE94
:100AE0000020FFF7ADFB03461A46694B1A80684B9E
:100AF0001B88092B09D8664B1B881BB203F00F0318
:100B00001BB21846FFF7DEFD05E0614B1B881BB2E8
:100B10001846FFF7D7FD5E4B1B88312B19D80022F2
:100B200001210020FFF79EFC002202210020FFF798
:100B300099FC00220D210220FFF794FC00220E21D7
:100B40000220FFF78FFC00220F210220FFF78AFC12
:100B500098E04F4B1B88632B19D8012201210020FC
:100B6000FFF780FC002202210020FFF77BFC00221F
:100B70000D210220FFF776FC00220E210220FFF754
:100B800071FC00220F210220FFF76CFC7AE0404B41
:100B90001B88B3F5C87F19D2002201210020FFF77E
:100BA00061FC012202210020FFF75CFC00220D21E4
:100BB0000220FFF757FC00220E210220FFF752FC13
:100BC00000220F210220FFF74DFC5BE0304B1B8819
:100BD000B3F5167F19D2002201210020FFF742FC55
:100BE000002202210020FFF73DFC01220D210220FE
:100BF000FFF738FC00220E210220FFF733FC002211
:100C00000F210220FFF72EFC3CE0214B1B88B3F59F
:100C1000487F19D2002201210020FFF723FC002287
:100C200002210020FFF71EFC00220D210220FFF709
:100C300019FC01220E210220FFF714FC00220F21D3
:100C40000220FFF70FFC1DE0114B1B88B3F5806FEE
:100C500018D2002201210020FFF704FC002202210B
:100C60000020FFF7FFFB00220D210220FFF7FAFB17
:100C700000220E210220FFF7F5FB01220F210220A6
:100C8000FFF7F0FBFA20FFF773FA1EE7480D0008A4
:100C9000220000200D488546AFF300800C480D4926
:100CA0000D4A002302E0D458C4500433C4188C42C7
:100CB000F9D30A4A0A4C002301E013600432A2422D
:100CC000FBD300F011F8FFF7C7FEFEE7005000204D
:100CD00000000020000000205C0D00080000002043
:100CE00024000020FEE7000070B500260C4D0D4CDE
:100CF000641BA410A64209D100F01AF800260A4D80
:100D00000A4C641BA410A64205D170BD55F8043BE3
:100D100098470136EEE755F8043B98470136F2E76D
:100D2000540D0008540D0008540D0008580D00081B
:100D3000F8B500BFF8BC08BC9E467047F8B500BFC8
:080D4000F8BC08BC9E46704798
:0C0D48004144432056616C7565203D005D
:040D5400550100083D
:040D5800310100085D
:0400000508000C954E
:00000001FF
