:020000040800F2
:100000000050002079080008C9080008C908000845
:10001000C9080008C9080008C90800080000000055
:10002000000000000000000000000000C9080008F7
:10003000C908000800000000C9080008C908000835
:10004000C9080008C9080008C9080008C90800084C
:10005000C9080008C9080008C9080008C90800083C
:10006000C9080008C9080008C9080008C90800082C
:10007000C9080008C9080008C9080008C90800081C
:10008000C9080008C9080008C9080008C90800080C
:10009000C9080008C9080008C9080008C9080008FC
:1000A000C9080008C9080008C9080008C9080008EC
:1000B000C9080008C9080008C9080008C9080008DC
:1000C000C9080008C9080008C9080008C9080008CC
:1000D000C9080008C9080008C9080008C9080008BC
:1000E000C9080008C908000800000000C908000885
:1000F000C9080008C9080008C9080008C90800089C
:10010000C9080008C9080008C9080008C90800088B
:10011000C9080008C9080008C9080008C90800087B
:10012000C9080008C9080008C9080008C90800086B
:1001300010B5054C237833B9044B13B10448AFF321
:1001400000800123237010BD00000020000000008B
:100150001409000808B5034B1BB103490348AFF36A
:10016000008008BD00000000040000201409000801
:1001700080B485B000AF78600023FB6003E000BF6F
:10018000FB680133FB607B684FF4FA7202FB03F3F8
:10019000FA689A42F3D300BF00BF1437BD4680BC53
:1001A0007047000080B584B000AF0123FB73174B8C
:1001B0001B687B600023BB6000F0CAFA02210220AA
:1001C00000F0E2FA0321022000F0DEFA022202210E
:1001D000002000F021F83B1D184600F0A8FA00F0BE
:1001E00015FB00F080F900F01AFA094800F0FEF95A
:1001F0004FF47A70FFF7BCFF00F011FA054800F0E9
:10020000F5F94FF47A70FFF7B3FFECE74009000807
:100210002C0900083409000880B483B000AF0346FD
:10022000FB710B46BB7113467B71FB79022B00F20D
:10023000B680BB790F2B00F2B2807B790F2B00F2D6
:10024000AE80BB79072B52D8FB79022B37D0022B1B
:1002500000F3A580002B02D0012B18D09FE0524B59
:100260001B68BA7992000F2101FA02F2D2431146BB
:100270004D4A0B4013604C4B1B687979BA79920058
:1002800001FA02F21146484A0B43136087E0474BDC
:100290001B68BA7992000F2101FA02F2D24311468B
:1002A000424A0B401360414B1B687979BA7992003E
:1002B00001FA02F211463D4A0B4313606FE03C4BDA
:1002C0001B68BA7992000F2101FA02F2D24311465B
:1002D000374A0B401360364B1B687979BA79920024
:1002E00001FA02F21146324A0B43136057E0BB7920
:1002F0000F2B54D8BB79083BBB71FB79022B36D04E
:10030000022B4CDC002B02D0012B18D047E0294BEC
:100310001B68BA7992000F2101FA02F2D24311460A
:10032000244A0B401360234B1B687979BA799200F9
:1003300001FA02F211461F4A0B4313602FE01E4BD5
:100340001B68BA7992000F2101FA02F2D2431146DA
:10035000194A0B401360184B1B687979BA799200DF
:1003600001FA02F21146144A0B43136017E0134BD3
:100370001B68BA7992000F2101FA02F2D2431146AA
:100380000E4A0B4013600D4B1B687979BA799200C5
:1003900001FA02F21146094A0B43136000BF00BF85
:1003A0000C37BD4680BC704700080140000C01407E
:1003B0000010014004080140040C014004100140F9
:1003C00080B483B000AF0346FB710B46BB7113468C
:1003D0007B71FB79022B61D8BB790F2B5ED87B79BF
:1003E000002B2DD1FB79022B1ED0022B56DC002BCB
:1003F00002D0012B0CD051E02B4B1B68BA790121A4
:1004000001FA02F2D2431146274A0B40136045E03D
:10041000264B1B68BA79012101FA02F2D243114638
:10042000224A0B40136039E0214B1B68BA79012145
:1004300001FA02F2D24311461D4A0B4013602DE02F
:100440007B79012B2AD1FB79022B1CD0022B25DCD6
:10045000002B02D0012B0BD020E0134B1B68BA7984
:10046000012101FA02F211460F4A0B43136015E015
:100470000E4B1B68BA79012101FA02F211460B4AB0
:100480000B4313600AE00A4B1B68BA79012101FA99
:1004900002F21146064A0B43136000BF00BF0C373F
:1004A000BD4680BC704700BF0C0801400C0C0140E9
:1004B0000C10014080B485B000AF78600023FB6071
:1004C00003E000BFFB680133FB607B684FF4FA7206
:1004D00002FB03F3FA689A42F3D300BF00BF14375C
:1004E000BD4680BC704780B500AF02220B210020C2
:1004F000FFF792FE022208210020FFF78DFE022264
:100500000C210120FFF788FE02220D210120FFF7B8
:1005100083FE02220E210120FFF77EFE02220F2120
:100520000120FFF779FE2320FFF7C4FF00220B21F3
:100530000020FFF745FF002208210020FFF740FFC1
:1005400000220C210120FFF73BFF00220D2101209A
:10055000FFF736FF01220E210120FFF731FF0022B5
:100560000F210120FFF72CFF012208210020FFF7B7
:1005700027FF0120FFF79EFF002208210020FFF740
:100580001FFF0520FFF796FF282000F01DF80E2022
:1005900000F01AF8012000F017F8062000F014F817
:1005A00000BF80BD80B582B000AF0346FB71012261
:1005B0000B210020FFF704FFFB79184600F036F806
:1005C00000BF0837BD4680BD80B582B000AF03468E
:1005D000FB7100220B210020FFF7F2FEFB79184689
:1005E00000F024F800BF0837BD4680BD80B582B05A
:1005F00000AF786009E07B6893F90030DBB2184601
:10060000FFF7D0FF7B6801337B607B6893F9003094
:10061000002BF0D100BF00BF0837BD4680BD80B5BC
:1006200000AF0120FFF7D0FF00BF80BD80B582B0D2
:1006300000AF0346FB71002208210020FFF7C0FE37
:10064000FB791B09DBB203F00103DBB21A460F2171
:100650000120FFF7B5FEFB795B09DBB203F0010374
:10066000DBB21A460E210120FFF7AAFEFB799B0997
:10067000DBB203F00103DBB21A460D210120FFF7C4
:100680009FFEFB79DB09DBB21A460C210120FFF744
:1006900097FE012208210020FFF792FE0120FFF7BC
:1006A00009FF002208210020FFF78AFE0520FFF73E
:1006B00001FFFB7903F00103DBB21A460F21012091
:1006C000FFF77EFEFB795B08DBB203F00103DBB2D0
:1006D0001A460E210120FFF773FEFB799B08DBB25F
:1006E00003F00103DBB21A460D210120FFF768FE7B
:1006F000FB79DB08DBB203F00103DBB21A460C2105
:100700000120FFF75DFE012208210020FFF758FEBF
:100710000120FFF7CFFE002208210020FFF750FE46
:100720000520FFF7C7FE00BF0837BD4680BD80B576
:1007300082B000AF78607B6858787B689B7808222D
:100740001946FFF769FD00BF0837BD4680BD0000B0
:1007500080B400AF0A4B1B68094A43F001031360E1
:10076000084B1B68074A23F001031360054B1B6805
:10077000044A23F00203136000BFBD4680BC7047EB
:10078000001002400410024080B483B000AF034662
:100790000A46FB711346BB71BB791F2B2AD8FB7924
:1007A000022B1CD0022B25DC002B02D0012B0BD0FE
:1007B00020E0134B1B68BA79012101FA02F21146BD
:1007C0000F4A0B43136015E00E4B1B68BA790121E9
:1007D00001FA02F211460B4A0B4313600AE00A4B7E
:1007E0001B68BA79012101FA02F21146064A0B434D
:1007F000136000BF00BF0C37BD4680BC704700BF10
:10080000141002401C1002401810024080B500AFC6
:1008100002220B210020FFF7FFFC0222082100200A
:10082000FFF7FAFC02220F210120FFF7F5FC02225C
:100830000E210120FFF7F0FC02220D210120FFF71D
:10084000EBFC02220C210120FFF7E6FC02220C2126
:100850000020FFF7E1FC02220F210020FFF7DCFC63
:10086000022209210120FFF7D7FC022208210120E2
:10087000FFF7D2FC00BF80BD0D488546AFF3008076
:100880000C480D490D4A002302E0D458C4500433EB
:10089000C4188C42F9D30A4A0A4C002301E01360C1
:1008A0000432A242FBD300F011F8FFF77BFCFEE715
:1008B0000050002000000020000000204C0900082B
:1008C000000000201C000020FEE7000070B500269C
:1008D0000C4D0D4C641BA410A64209D100F01AF86F
:1008E00000260A4D0A4C641BA410A64205D170BD17
:1008F00055F8043B98470136EEE755F8043B984716
:100900000136F2E7440900084409000844090008D8
:1009100048090008F8B500BFF8BC08BC9E467047FF
:0C092000F8B500BFF8BC08BC9E4670474C
:10092C004D79204E616D650041686D6564205461A0
:08093C0072656B0001010B0064
:040944005501000851
:040948003101000871
:04000005080008796E
:00000001FF
