:020000040800F2
:10000000005000203D0500088D0500088D05000802
:100010008D0500088D0500088D0500080000000012
:100020000000000000000000000000008D05000836
:100030008D050008000000008D0500088D050008F2
:100040008D0500088D0500088D0500088D05000848
:100050008D0500088D0500088D0500088D05000838
:100060008D0500088D0500088D0500088D05000828
:100070008D0500088D0500088D0500088D05000818
:100080008D0500088D0500088D0500088D05000808
:100090008D0500088D0500088D0500088D050008F8
:1000A0008D0500088D0500088D0500088D050008E8
:1000B0008D0500088D0500088D0500088D050008D8
:1000C0008D0500088D0500088D0500088D050008C8
:1000D0008D0500088D0500088D0500088D050008B8
:1000E0008D0500088D050008000000008D05000842
:1000F0008D0500088D0500088D0500088D05000898
:100100008D0500088D0500088D0500088D05000887
:100110008D0500088D0500088D0500088D05000877
:100120008D0500088D0500088D0500088D05000867
:1001300010B5054C237833B9044B13B10448AFF321
:1001400000800123237010BD00000020000000008B
:10015000D805000808B5034B1BB103490348AFF3AA
:10016000008008BD0000000004000020D805000841
:1001700080B483B000AF0346FB710B46BB711346DE
:100180007B71FB79022B00F2B680BB790F2B00F25A
:10019000B2807B790F2B00F2AE80BB79072B52D84F
:1001A000FB79022B37D0022B00F3A580002B02D065
:1001B000012B18D09FE0524B1B68BA7992000F2197
:1001C00001FA02F2D24311464D4A0B4013604C4BE8
:1001D0001B687979BA79920001FA02F21146484A0D
:1001E0000B43136087E0474B1B68BA7992000F21DD
:1001F00001FA02F2D2431146424A0B401360414BCE
:100200001B687979BA79920001FA02F211463D4AE7
:100210000B4313606FE03C4B1B68BA7992000F21CF
:1002200001FA02F2D2431146374A0B401360364BB3
:100230001B687979BA79920001FA02F21146324AC2
:100240000B43136057E0BB790F2B54D8BB79083BA5
:10025000BB71FB79022B36D0022B4CDC002B02D079
:10026000012B18D047E0294B1B68BA7992000F2167
:1002700001FA02F2D2431146244A0B401360234B89
:100280001B687979BA79920001FA02F211461F4A85
:100290000B4313602FE01E4B1B68BA7992000F21AD
:1002A00001FA02F2D2431146194A0B401360184B6F
:1002B0001B687979BA79920001FA02F21146144A60
:1002C0000B43136017E0134B1B68BA7992000F21A0
:1002D00001FA02F2D24311460E4A0B4013600D4B55
:1002E0001B687979BA79920001FA02F21146094A3B
:1002F0000B43136000BF00BF0C37BD4680BC704786
:1003000000080140000C01400010014004080140B9
:10031000040C01400410014080B400AF0A4B1B687C
:10032000094A43F001031360084B1B68074A23F096
:1003300001031360054B1B68044A23F0020313609A
:1003400000BFBD4680BC7047001002400410024050
:1003500080B483B000AF03460A46FB711346BB71FD
:10036000BB791F2B2AD8FB79022B1CD0022B25DC52
:10037000002B02D0012B0BD020E0134B1B68BA7965
:10038000012101FA02F211460F4A0B43136015E0F6
:100390000E4B1B68BA79012101FA02F211460B4A91
:1003A0000B4313600AE00A4B1B68BA79012101FA7A
:1003B00002F21146064A0B43136000BF00BF0C3720
:1003C000BD4680BC704700BF141002401C100240A4
:1003D0001810024080B400AF084B40F241321A605E
:1003E000074B00221A60074B42F20C021A60064BC0
:1003F00000221A6000BFBD4680BC7047083801402B
:10040000103801400C3801401838014080B483B0E6
:1004100000AF0346FB7100BF074B1B68DB0903F00D
:100420000103002BF8D0054AFB79136000BF0C379D
:10043000BD4680BC704700BF003801400438014011
:1004400080B483B000AF786000BF084B1B685B09C5
:1004500003F00103002BF8D0054B1B68DAB27B6870
:100460001A7000BF0C37BD4680BC70470038014091
:100470000438014080B584B000AF78600023FB737E
:1004800009E0FB7B7A6813441B781846FFF7BEFF30
:10049000FB7B0133FB73FB7B7A6813441B78002BD7
:1004A000EFD100BF00BF1037BD4680BD80B584B01E
:1004B00000AF78600023FB73FB7B7A681344184617
:1004C000FFF7BEFF08E0FB7B0133FB73FB7B7A6821
:1004D00013441846FFF7B4FFFB7B7A6813441B787C
:1004E000232BF0D1FB7B7A68134400221A7000BFE3
:1004F0001037BD4680BD80B59AB000AFFFF70CFF46
:1005000002210220FFF724FF0E210220FFF720FF27
:10051000FFF760FF0A2209210020FFF729FE0422CD
:100520000A210020FFF724FE3B1D1846FFF7BEFFFF
:100530003B1D1846FFF79EFFF6E700000D48854675
:10054000AFF300800C480D490D4A002302E0D45857
:10055000C4500433C4188C42F9D30A4A0A4C00230D
:1005600001E013600432A242FBD300F011F8FFF760
:10057000C2FFFEE700500020000000200000002025
:10058000F8050008000000201C000020FEE7000025
:1005900070B500260C4D0D4C641BA410A64209D169
:1005A00000F01AF800260A4D0A4C641BA410A6425B
:1005B00005D170BD55F8043B98470136EEE755F874
:1005C000043B98470136F2E7F0050008F005000803
:1005D000F0050008F4050008F8B500BFF8BC08BC39
:1005E0009E467047F8B500BFF8BC08BC9E467047F1
:0405F00055010008A9
:0405F40031010008C9
:040000050800053DAD
:00000001FF
