:020000040800F2
:1000000000500020450500089505000895050008EA
:1000100095050008950500089505000800000000FA
:10002000000000000000000000000000950500082E
:1000300095050008000000009505000895050008DA
:100040009505000895050008950500089505000828
:100050009505000895050008950500089505000818
:100060009505000895050008950500089505000808
:1000700095050008950500089505000895050008F8
:1000800095050008950500089505000895050008E8
:1000900095050008950500089505000895050008D8
:1000A00095050008950500089505000895050008C8
:1000B00095050008950500089505000895050008B8
:1000C00095050008950500089505000895050008A8
:1000D0009505000895050008950500089505000898
:1000E000950500089505000800000000950500082A
:1000F0009505000895050008950500089505000878
:100100009505000895050008950500089505000867
:100110009505000895050008950500089505000857
:100120009505000895050008950500089505000847
:1001300010B5054C237833B9044B13B10448AFF321
:1001400000800123237010BD00000020000000008B
:10015000E005000808B5034B1BB103490348AFF3A2
:10016000008008BD0000000004000020E005000839
:1001700080B483B000AF0346FB710B46BB711346DE
:100180007B71FB79022B00F2B680BB790F2B00F25A
:10019000B2807B790F2B00F2AE80BB79072B52D84F
:1001A000FB79022B37D0022B00F3A580002B02D065
:1001B000012B18D09FE0524B1B68BA7992000F2197
:1001C00001FA02F2D24311464D4A0B4013604C4BE8
:1001D0001B687979BA79920001FA02F21146484A0D
:1001E0000B43136087E0474B1B68BA7992000F21DD
:1001F00001FA02F2D2431146424A0B401360414BCE
:100200001B687979BA79920001FA02F211463D4AE7
:100210000B4313606FE03C4B1B68BA7992000F21CF
:1002200001FA02F2D2431146374A0B401360364BB3
:100230001B687979BA79920001FA02F21146324AC2
:100240000B43136057E0BB790F2B54D8BB79083BA5
:10025000BB71FB79022B36D0022B4CDC002B02D079
:10026000012B18D047E0294B1B68BA7992000F2167
:1002700001FA02F2D2431146244A0B401360234B89
:100280001B687979BA79920001FA02F211461F4A85
:100290000B4313602FE01E4B1B68BA7992000F21AD
:1002A00001FA02F2D2431146194A0B401360184B6F
:1002B0001B687979BA79920001FA02F21146144A60
:1002C0000B43136017E0134B1B68BA7992000F21A0
:1002D00001FA02F2D24311460E4A0B4013600D4B55
:1002E0001B687979BA79920001FA02F21146094A3B
:1002F0000B43136000BF00BF0C37BD4680BC704786
:1003000000080140000C01400010014004080140B9
:10031000040C01400410014080B483B000AF0346D8
:100320000A46FB711346BB71FB79022B2DD8BB79B2
:100330000F2B2AD8FB79022B1CD0022B25DC002B9B
:1003400002D0012B0BD020E0124B1B68BA7901219F
:1003500001FA02F211460F4A4B40136015E00D4BB3
:100360001B68BA79012101FA02F21146094A4B4091
:1003700013600AE0074B1B68BA79012101FA02F207
:100380001146044A4B40136000BF00BF0C37BD4606
:1003900080BC70470C08014080B400AF0A4B1B685A
:1003A000094A43F001031360084B1B68074A23F016
:1003B00001031360054B1B68044A23F0020313601A
:1003C00000BFBD4680BC70470010024004100240D0
:1003D00080B483B000AF03460A46FB711346BB717D
:1003E000BB791F2B2AD8FB79022B1CD0022B25DCD2
:1003F000002B02D0012B0BD020E0134B1B68BA79E5
:10040000012101FA02F211460F4A0B43136015E075
:100410000E4B1B68BA79012101FA02F211460B4A10
:100420000B4313600AE00A4B1B68BA79012101FAF9
:1004300002F21146064A0B43136000BF00BF0C379F
:10044000BD4680BC704700BF141002401C10024023
:100450001810024080B485B000AF78600023FB60C4
:1004600003E000BFFB680133FB607B684FF4FA7266
:1004700002FB03F3FA689A42F3D300BF00BF1437BC
:10048000BD4680BC704780B582B000AFFFF784FFE7
:1004900002210220FFF79CFF0C210220FFF798FFAA
:1004A000042200210020FFF763FE04220521002022
:1004B000FFF75EFE0B2206210020FFF759FE042203
:1004C00007210020FFF754FE00F016F80222022157
:1004D0000020FFF74DFEFB1D184600F019F8FB79D0
:1004E000AA2BF8D102210020FFF716FF4FF47A70F3
:1004F000FFF7B0FFEFE7000080B400AF034B40F21E
:1005000043321A6000BFBD4680BC704700300140D6
:1005100080B483B000AF786000BF084B1B685B08F5
:1005200003F00103002BF8D0054B1B68DAB27B689F
:100530001A7000BF0C37BD4680BC704708300140C0
:100540000C3001400D488546AFF300800C480D4942
:100550000D4A002302E0D458C4500433C4188C421E
:10056000F9D30A4A0A4C002301E013600432A24284
:10057000FBD300F011F8FFF786FFFEE700500020E4
:1005800000000020000000200006000800000020FD
:100590001C000020FEE7000070B500260C4D0D4C3D
:1005A000641BA410A64209D100F01AF800260A4DD7
:1005B0000A4C641BA410A64205D170BD55F8043B3B
:1005C00098470136EEE755F8043B98470136F2E7C5
:1005D000F8050008F8050008F8050008FC05000803
:1005E000F8B500BFF8BC08BC9E467047F8B500BF20
:0805F000F8BC08BC9E467047F0
:0405F80055010008A1
:0405FC0031010008C1
:0400000508000545A5
:00000001FF
